{
  "contractName": "BookRental",
  "abi": [
    {
      "anonymous": false,
      "inputs": [
        {
          "indexed": true,
          "internalType": "uint256",
          "name": "bookId",
          "type": "uint256"
        },
        {
          "indexed": false,
          "internalType": "string",
          "name": "title",
          "type": "string"
        },
        {
          "indexed": false,
          "internalType": "uint256",
          "name": "dailyPrice",
          "type": "uint256"
        },
        {
          "indexed": false,
          "internalType": "uint256",
          "name": "deposit",
          "type": "uint256"
        },
        {
          "indexed": false,
          "internalType": "address",
          "name": "owner",
          "type": "address"
        }
      ],
      "name": "BookListed",
      "type": "event"
    },
    {
      "anonymous": false,
      "inputs": [
        {
          "indexed": true,
          "internalType": "uint256",
          "name": "bookId",
          "type": "uint256"
        },
        {
          "indexed": false,
          "internalType": "address",
          "name": "renter",
          "type": "address"
        },
        {
          "indexed": false,
          "internalType": "uint256",
          "name": "rentedAt",
          "type": "uint256"
        },
        {
          "indexed": false,
          "internalType": "uint256",
          "name": "deposit",
          "type": "uint256"
        }
      ],
      "name": "BookRented",
      "type": "event"
    },
    {
      "anonymous": false,
      "inputs": [
        {
          "indexed": true,
          "internalType": "uint256",
          "name": "bookId",
          "type": "uint256"
        },
        {
          "indexed": false,
          "internalType": "address",
          "name": "renter",
          "type": "address"
        },
        {
          "indexed": false,
          "internalType": "uint256",
          "name": "returnedAt",
          "type": "uint256"
        },
        {
          "indexed": false,
          "internalType": "uint256",
          "name": "refundAmount",
          "type": "uint256"
        }
      ],
      "name": "BookReturned",
      "type": "event"
    },
    {
      "inputs": [
        {
          "internalType": "uint256",
          "name": "",
          "type": "uint256"
        }
      ],
      "name": "books",
      "outputs": [
        {
          "internalType": "string",
          "name": "title",
          "type": "string"
        },
        {
          "internalType": "uint256",
          "name": "dailyPrice",
          "type": "uint256"
        },
        {
          "internalType": "uint256",
          "name": "deposit",
          "type": "uint256"
        },
        {
          "internalType": "address",
          "name": "owner",
          "type": "address"
        },
        {
          "internalType": "address",
          "name": "renter",
          "type": "address"
        },
        {
          "internalType": "uint256",
          "name": "rentedAt",
          "type": "uint256"
        },
        {
          "internalType": "bool",
          "name": "isAvailable",
          "type": "bool"
        }
      ],
      "stateMutability": "view",
      "type": "function"
    },
    {
      "inputs": [
        {
          "internalType": "string",
          "name": "_title",
          "type": "string"
        },
        {
          "internalType": "uint256",
          "name": "_dailyPrice",
          "type": "uint256"
        },
        {
          "internalType": "uint256",
          "name": "_deposit",
          "type": "uint256"
        }
      ],
      "name": "listBook",
      "outputs": [],
      "stateMutability": "nonpayable",
      "type": "function"
    },
    {
      "inputs": [
        {
          "internalType": "uint256",
          "name": "_bookId",
          "type": "uint256"
        }
      ],
      "name": "rentBook",
      "outputs": [],
      "stateMutability": "payable",
      "type": "function"
    },
    {
      "inputs": [
        {
          "internalType": "uint256",
          "name": "_bookId",
          "type": "uint256"
        }
      ],
      "name": "returnBook",
      "outputs": [],
      "stateMutability": "nonpayable",
      "type": "function"
    },
    {
      "inputs": [],
      "name": "getAllBooks",
      "outputs": [
        {
          "internalType": "uint256[]",
          "name": "",
          "type": "uint256[]"
        },
        {
          "internalType": "string[]",
          "name": "",
          "type": "string[]"
        },
        {
          "internalType": "uint256[]",
          "name": "",
          "type": "uint256[]"
        },
        {
          "internalType": "uint256[]",
          "name": "",
          "type": "uint256[]"
        },
        {
          "internalType": "address[]",
          "name": "",
          "type": "address[]"
        },
        {
          "internalType": "bool[]",
          "name": "",
          "type": "bool[]"
        }
      ],
      "stateMutability": "view",
      "type": "function"
    },
    {
      "inputs": [
        {
          "internalType": "address",
          "name": "_user",
          "type": "address"
        }
      ],
      "name": "getUserRentals",
      "outputs": [
        {
          "internalType": "uint256[]",
          "name": "",
          "type": "uint256[]"
        }
      ],
      "stateMutability": "view",
      "type": "function"
    },
    {
      "inputs": [
        {
          "internalType": "uint256",
          "name": "_bookId",
          "type": "uint256"
        }
      ],
      "name": "getBookDetails",
      "outputs": [
        {
          "internalType": "string",
          "name": "",
          "type": "string"
        },
        {
          "internalType": "uint256",
          "name": "",
          "type": "uint256"
        },
        {
          "internalType": "uint256",
          "name": "",
          "type": "uint256"
        },
        {
          "internalType": "address",
          "name": "",
          "type": "address"
        },
        {
          "internalType": "address",
          "name": "",
          "type": "address"
        },
        {
          "internalType": "uint256",
          "name": "",
          "type": "uint256"
        },
        {
          "internalType": "bool",
          "name": "",
          "type": "bool"
        }
      ],
      "stateMutability": "view",
      "type": "function"
    }
  ],
  "bytecode": "0x608060405234801561000f575f80fd5b5060015f556115ed806100215f395ff3fe60806040526004361061006e575f3560e01c806374ff48181161004c57806374ff4818146100ff57806378ef17191461011e578063ab4f5bbf1461013f578063ca5140c914610152575f80fd5b8063354528e8146100725780633b6702a1146100a157806368744046146100cd575b5f80fd5b34801561007d575f80fd5b50610086610171565b60405161009896959493929190611117565b60405180910390f35b3480156100ac575f80fd5b506100c06100bb3660046111d9565b6104ec565b6040516100989190611206565b3480156100d8575f80fd5b506100ec6100e7366004611218565b610555565b604051610098979695949392919061122f565b34801561010a575f80fd5b506100ec610119366004611218565b610625565b348015610129575f80fd5b5061013d610138366004611294565b610723565b005b61013d61014d366004611218565b6108f2565b34801561015d575f80fd5b5061013d61016c366004611218565b610b78565b6060806060806060805f60025467ffffffffffffffff81111561019657610196611280565b6040519080825280602002602001820160405280156101bf578160200160208202803683370190505b5090505f60025467ffffffffffffffff8111156101de576101de611280565b60405190808252806020026020018201604052801561021157816020015b60608152602001906001900390816101fc5790505b5090505f60025467ffffffffffffffff81111561023057610230611280565b604051908082528060200260200182016040528015610259578160200160208202803683370190505b5090505f60025467ffffffffffffffff81111561027857610278611280565b6040519080825280602002602001820160405280156102a1578160200160208202803683370190505b5090505f60025467ffffffffffffffff8111156102c0576102c0611280565b6040519080825280602002602001820160405280156102e9578160200160208202803683370190505b5090505f60025467ffffffffffffffff81111561030857610308611280565b604051908082528060200260200182016040528015610331578160200160208202803683370190505b5090505f5b6002548110156104d8575f8181526001602052604090208751829089908290811061036357610363611351565b60209081029190910101528054819061037b90611365565b80601f01602080910402602001604051908101604052809291908181526020018280546103a790611365565b80156103f25780601f106103c9576101008083540402835291602001916103f2565b820191905f5260205f20905b8154815290600101906020018083116103d557829003601f168201915b505050505087838151811061040957610409611351565b6020026020010181905250806001015486838151811061042b5761042b611351565b602002602001018181525050806002015485838151811061044e5761044e611351565b6020908102919091010152600381015484516001600160a01b039091169085908490811061047e5761047e611351565b6001600160a01b03909216602092830291909101909101526006810154835160ff909116908490849081106104b5576104b5611351565b9115156020928302919091019091015250806104d0816113b1565b915050610336565b50949b939a50919850965094509092509050565b6001600160a01b0381165f9081526003602090815260409182902080548351818402810184019094528084526060939283018282801561054957602002820191905f5260205f20905b815481526020019060010190808311610535575b50505050509050919050565b60016020525f908152604090208054819061056f90611365565b80601f016020809104026020016040519081016040528092919081815260200182805461059b90611365565b80156105e65780601f106105bd576101008083540402835291602001916105e6565b820191905f5260205f20905b8154815290600101906020018083116105c957829003601f168201915b50505060018401546002850154600386015460048701546005880154600690980154969793969295506001600160a01b03918216945016919060ff1687565b5f818152600160208190526040822090810154600282015460038301546004840154600585015460068601548654606098978897889788978897889794968796949593946001600160a01b0393841694929093169260ff90911690879061068b90611365565b80601f01602080910402602001604051908101604052809291908181526020018280546106b790611365565b80156107025780601f106106d957610100808354040283529160200191610702565b820191905f5260205f20905b8154815290600101906020018083116106e557829003601f168201915b50505050509650975097509750975097509750975050919395979092949650565b5f82116107825760405162461bcd60e51b815260206004820152602260248201527f4461696c79207072696365206d7573742062652067726561746572207468616e604482015261020360f41b60648201526084015b60405180910390fd5b5f81116107d15760405162461bcd60e51b815260206004820152601e60248201527f4465706f736974206d7573742062652067726561746572207468616e203000006044820152606401610779565b600280549081905f6107e2836113b1565b90915550506040805160e08101825285815260208082018690528183018590523360608301525f6080830181905260a08301819052600160c0840181905285825290915291909120815181906108389082611417565b5060208201516001820155604080830151600283015560608301516003830180546001600160a01b039283166001600160a01b031991821617909155608085015160048501805491909316911617905560a0830151600583015560c0909201516006909101805491151560ff199092169190911790555181907fa1a42f2e8753f365000161ecfaf9f1c120f83f3d2f008e5edd0c25f05ec71bf2906108e49087908790879033906114d3565b60405180910390a250505050565b6108fa610f13565b5f81815260016020526040902060038101546001600160a01b03166109575760405162461bcd60e51b8152602060048201526013602482015272109bdbdac8191bd95cc81b9bdd08195e1a5cdd606a1b6044820152606401610779565b600681015460ff166109ab5760405162461bcd60e51b815260206004820152601e60248201527f426f6f6b206973206e6f7420617661696c61626c6520666f722072656e7400006044820152606401610779565b60038101546001600160a01b03163303610a075760405162461bcd60e51b815260206004820181905260248201527f4f776e65722063616e6e6f742072656e74207468656972206f776e20626f6f6b6044820152606401610779565b80600101548160020154610a1b919061150a565b341015610a615760405162461bcd60e51b8152602060048201526014602482015273125b9cdd59999a58da595b9d081c185e5b595b9d60621b6044820152606401610779565b6004810180546001600160a01b0319163390811790915542600583015560068201805460ff191690555f908152600360208181526040808420805460018181018355918652928520909201869055918401549084015491516001600160a01b0390911691908381818185875af1925050503d805f8114610afc576040519150601f19603f3d011682016040523d82523d5f602084013e610b01565b606091505b5050905080610b225760405162461bcd60e51b815260040161077990611523565b6002820154604080513381524260208201529081019190915283907f99e38486f895d4b653cd4a1dce4fc0db2a1e939d24bdb06bd55264bbd31f9a2a9060600160405180910390a25050610b7560015f55565b50565b610b80610f13565b5f81815260016020526040902060038101546001600160a01b0316610bdd5760405162461bcd60e51b8152602060048201526013602482015272109bdbdac8191bd95cc81b9bdd08195e1a5cdd606a1b6044820152606401610779565b600681015460ff1615610c275760405162461bcd60e51b8152602060048201526012602482015271109bdbdac81a5cc81b9bdd081c995b9d195960721b6044820152606401610779565b60048101546001600160a01b03163314610c8f5760405162461bcd60e51b815260206004820152602360248201527f4f6e6c79207468652072656e7465722063616e2072657475726e2074686520626044820152626f6f6b60e81b6064820152608401610779565b5f62015180826005015442610ca4919061155a565b610cb1906201517f61150a565b610cbb919061156d565b9050805f03610cc8575060015b5f610cd460018361155a565b8360010154610ce3919061158c565b600284015490915080821015610d7a57610cfd828261155a565b60038501546040519192505f916001600160a01b039091169084908381818185875af1925050503d805f8114610d4e576040519150601f19603f3d011682016040523d82523d5f602084013e610d53565b606091505b5050905080610d745760405162461bcd60e51b815260040161077990611523565b50610df6565b50600383015460028401546040515f9283926001600160a01b03909116918381818185875af1925050503d805f8114610dce576040519150601f19603f3d011682016040523d82523d5f602084013e610dd3565b606091505b5050905080610df45760405162461bcd60e51b815260040161077990611523565b505b60068401805460ff19166001179055610e0f3386610f6a565b8015610eac576040515f90339083908381818185875af1925050503d805f8114610e54576040519150601f19603f3d011682016040523d82523d5f602084013e610e59565b606091505b5050905080610eaa5760405162461bcd60e51b815260206004820152601f60248201527f4661696c656420746f2073656e6420726566756e6420746f2072656e746572006044820152606401610779565b505b6040805133815242602082015290810182905285907f9ee4f3585840dcc289470a0aeaaa76a82f0e2482ba2503e9c3ecee3c22d2fa319060600160405180910390a25050506004810180546001600160a01b03191690555f600590910155610b7560015f55565b60025f5403610f645760405162461bcd60e51b815260206004820152601f60248201527f5265656e7472616e637947756172643a207265656e7472616e742063616c6c006044820152606401610779565b60025f55565b6001600160a01b0382165f908152600360205260408120905b815481101561102e5782828281548110610f9f57610f9f611351565b905f5260205f2001540361101c5781548290610fbd9060019061155a565b81548110610fcd57610fcd611351565b905f5260205f200154828281548110610fe857610fe8611351565b905f5260205f20018190555081805480611004576110046115a3565b600190038181905f5260205f20015f9055905561102e565b80611026816113b1565b915050610f83565b50505050565b5f8151808452602080850194508084015f5b8381101561106257815187529582019590820190600101611046565b509495945050505050565b5f81518084525f5b8181101561109157602081850181015186830182015201611075565b505f602082860101526020601f19601f83011685010191505092915050565b5f8151808452602080850194508084015f5b838110156110625781516001600160a01b0316875295820195908201906001016110c2565b5f8151808452602080850194508084015f5b838110156110625781511515875295820195908201906001016110f9565b60c081525f61112960c0830189611034565b6020838203818501528189518084528284019150828160051b850101838c015f5b8381101561117857601f1987840301855261116683835161106d565b9486019492509085019060010161114a565b5050868103604088015261118c818c611034565b94505050505082810360608401526111a48187611034565b905082810360808401526111b881866110b0565b905082810360a08401526111cc81856110e7565b9998505050505050505050565b5f602082840312156111e9575f80fd5b81356001600160a01b03811681146111ff575f80fd5b9392505050565b602081525f6111ff6020830184611034565b5f60208284031215611228575f80fd5b5035919050565b60e081525f61124160e083018a61106d565b60208301989098525060408101959095526001600160a01b03938416606086015291909216608084015260a0830191909152151560c090910152919050565b634e487b7160e01b5f52604160045260245ffd5b5f805f606084860312156112a6575f80fd5b833567ffffffffffffffff808211156112bd575f80fd5b818601915086601f8301126112d0575f80fd5b8135818111156112e2576112e2611280565b604051601f8201601f19908116603f0116810190838211818310171561130a5761130a611280565b81604052828152896020848701011115611322575f80fd5b826020860160208301375f60208483010152809750505050505060208401359150604084013590509250925092565b634e487b7160e01b5f52603260045260245ffd5b600181811c9082168061137957607f821691505b60208210810361139757634e487b7160e01b5f52602260045260245ffd5b50919050565b634e487b7160e01b5f52601160045260245ffd5b5f600182016113c2576113c261139d565b5060010190565b601f821115611412575f81815260208120601f850160051c810160208610156113ef5750805b601f850160051c820191505b8181101561140e578281556001016113fb565b5050505b505050565b815167ffffffffffffffff81111561143157611431611280565b6114458161143f8454611365565b846113c9565b602080601f831160018114611478575f84156114615750858301515b5f19600386901b1c1916600185901b17855561140e565b5f85815260208120601f198616915b828110156114a657888601518255948401946001909101908401611487565b50858210156114c357878501515f19600388901b60f8161c191681555b5050505050600190811b01905550565b608081525f6114e5608083018761106d565b60208301959095525060408101929092526001600160a01b0316606090910152919050565b8082018082111561151d5761151d61139d565b92915050565b6020808252601f908201527f4661696c656420746f2073656e64207061796d656e7420746f206f776e657200604082015260600190565b8181038181111561151d5761151d61139d565b5f8261158757634e487b7160e01b5f52601260045260245ffd5b500490565b808202811582820484141761151d5761151d61139d565b634e487b7160e01b5f52603160045260245ffdfea2646970667358221220f7bd882a8e27902d13f0b17b4e216c6cd19e8abe2c439b88a79ca43a8f54583864736f6c63430008140033",
  "immutableReferences": {},
  "source": "// SPDX-License-Identifier: MIT\npragma solidity ^0.8.20;\n\nimport \"@openzeppelin/contracts/security/ReentrancyGuard.sol\";\n\n\ncontract BookRental is ReentrancyGuard {\n    // Struct to store book information\n    struct Book {\n        string title;\n        uint256 dailyPrice; // in wei\n        uint256 deposit; // in wei\n        address owner;\n        address renter;\n        uint256 rentedAt; // timestamp when book was rented\n        bool isAvailable;\n    }\n    \n    // Mapping from book ID to Book struct\n    mapping(uint256 => Book) public books;\n    \n    // Counter for book IDs\n    uint256 private _bookIdCounter;\n    \n    // Mapping to track user's rented books\n    mapping(address => uint256[]) private userRentals;\n    \n    // Events\n    event BookListed(uint256 indexed bookId, string title, uint256 dailyPrice, uint256 deposit, address owner);\n    event BookRented(uint256 indexed bookId, address renter, uint256 rentedAt, uint256 deposit);\n    event BookReturned(uint256 indexed bookId, address renter, uint256 returnedAt, uint256 refundAmount);\n    \n    /**\n     * @dev List a book for rental\n     * @param _title Title of the book\n     * @param _dailyPrice Daily rental price in wei\n     * @param _deposit Deposit amount in wei\n     */\n    function listBook(string memory _title, uint256 _dailyPrice, uint256 _deposit) external {\n        require(_dailyPrice > 0, \"Daily price must be greater than 0\");\n        require(_deposit > 0, \"Deposit must be greater than 0\");\n        \n        uint256 bookId = _bookIdCounter;\n        _bookIdCounter++;\n        \n        books[bookId] = Book({\n            title: _title,\n            dailyPrice: _dailyPrice,\n            deposit: _deposit,\n            owner: msg.sender,\n            renter: address(0),\n            rentedAt: 0,\n            isAvailable: true\n        });\n        \n        emit BookListed(bookId, _title, _dailyPrice, _deposit, msg.sender);\n    }\n    \n    /**\n     * @dev Rent a book\n     * @param _bookId ID of the book to rent\n     */\n    function rentBook(uint256 _bookId) external payable nonReentrant {\n        Book storage book = books[_bookId];\n        \n        require(book.owner != address(0), \"Book does not exist\");\n        require(book.isAvailable, \"Book is not available for rent\");\n        require(msg.sender != book.owner, \"Owner cannot rent their own book\");\n        require(msg.value >= book.deposit + book.dailyPrice, \"Insufficient payment\");\n        \n        // Update book status\n        book.renter = msg.sender;\n        book.rentedAt = block.timestamp;\n        book.isAvailable = false;\n        \n        // Add to user's rentals\n        userRentals[msg.sender].push(_bookId);\n        \n        // Send first day's payment to the owner\n        (bool success, ) = payable(book.owner).call{value: book.dailyPrice}(\"\");\n        require(success, \"Failed to send payment to owner\");\n        \n        emit BookRented(_bookId, msg.sender, block.timestamp, book.deposit);\n    }\n    \n    /**\n     * @dev Return a rented book\n     * @param _bookId ID of the book to return\n     */\n    function returnBook(uint256 _bookId) external nonReentrant {\n        Book storage book = books[_bookId];\n        \n        require(book.owner != address(0), \"Book does not exist\");\n        require(!book.isAvailable, \"Book is not rented\");\n        require(msg.sender == book.renter, \"Only the renter can return the book\");\n        \n        // Calculate rental period in days (rounded up)\n        uint256 rentalDays = (block.timestamp - book.rentedAt + 86399) / 86400; // 86400 seconds = 1 day\n        if (rentalDays == 0) {\n            rentalDays = 1; // Minimum 1 day rental\n        }\n        \n        // Calculate total rental cost (first day already paid)\n        uint256 remainingRentalCost = book.dailyPrice * (rentalDays - 1);\n        \n        // Calculate refund amount (deposit minus remaining rental cost)\n        uint256 refundAmount = book.deposit;\n        if (remainingRentalCost < refundAmount) {\n            refundAmount -= remainingRentalCost;\n            \n            // Send remaining rental cost to owner\n            (bool ownerSuccess, ) = payable(book.owner).call{value: remainingRentalCost}(\"\");\n            require(ownerSuccess, \"Failed to send payment to owner\");\n        } else {\n            // Rental cost exceeds deposit, no refund for renter\n            refundAmount = 0;\n            \n            // Send entire deposit to owner\n            (bool ownerSuccess, ) = payable(book.owner).call{value: book.deposit}(\"\");\n            require(ownerSuccess, \"Failed to send payment to owner\");\n        }\n        \n        // Reset book status\n        book.isAvailable = true;\n        \n        // Remove from user's rentals\n        removeFromUserRentals(msg.sender, _bookId);\n        \n        // Send refund to renter if applicable\n        if (refundAmount > 0) {\n            (bool renterSuccess, ) = payable(msg.sender).call{value: refundAmount}(\"\");\n            require(renterSuccess, \"Failed to send refund to renter\");\n        }\n        \n        emit BookReturned(_bookId, msg.sender, block.timestamp, refundAmount);\n        \n        // Reset rental data\n        book.renter = address(0);\n        book.rentedAt = 0;\n    }\n    \n    /**\n     * @dev Helper function to remove a book from user's rentals array\n     * @param _user Address of the user\n     * @param _bookId ID of the book to remove\n     */\n    function removeFromUserRentals(address _user, uint256 _bookId) private {\n        uint256[] storage rentals = userRentals[_user];\n        for (uint256 i = 0; i < rentals.length; i++) {\n            if (rentals[i] == _bookId) {\n                // Replace with the last element\n                rentals[i] = rentals[rentals.length - 1];\n                // Remove the last element\n                rentals.pop();\n                break;\n            }\n        }\n    }\n    \n    /**\n     * @dev Get all books\n     * @return Array of book IDs, titles, daily prices, deposits, owners, and availability status\n     */\n    function getAllBooks() external view returns (\n        uint256[] memory,\n        string[] memory,\n        uint256[] memory,\n        uint256[] memory,\n        address[] memory,\n        bool[] memory\n    ) {\n        uint256[] memory ids = new uint256[](_bookIdCounter);\n        string[] memory titles = new string[](_bookIdCounter);\n        uint256[] memory dailyPrices = new uint256[](_bookIdCounter);\n        uint256[] memory deposits = new uint256[](_bookIdCounter);\n        address[] memory owners = new address[](_bookIdCounter);\n        bool[] memory availability = new bool[](_bookIdCounter);\n        \n        for (uint256 i = 0; i < _bookIdCounter; i++) {\n            Book storage book = books[i];\n            ids[i] = i;\n            titles[i] = book.title;\n            dailyPrices[i] = book.dailyPrice;\n            deposits[i] = book.deposit;\n            owners[i] = book.owner;\n            availability[i] = book.isAvailable;\n        }\n        \n        return (ids, titles, dailyPrices, deposits, owners, availability);\n    }\n    \n    /**\n     * @dev Get user's rented books\n     * @param _user Address of the user\n     * @return Array of rented book IDs\n     */\n    function getUserRentals(address _user) external view returns (uint256[] memory) {\n        return userRentals[_user];\n    }\n    \n    /**\n     * @dev Get book details\n     * @param _bookId ID of the book\n     * @return Book details (title, daily price, deposit, owner, renter, rentedAt, availability)\n     */\n    function getBookDetails(uint256 _bookId) external view returns (\n        string memory,\n        uint256,\n        uint256,\n        address,\n        address,\n        uint256,\n        bool\n    ) {\n        Book storage book = books[_bookId];\n        return (\n            book.title,\n            book.dailyPrice,\n            book.deposit,\n            book.owner,\n            book.renter,\n            book.rentedAt,\n            book.isAvailable\n        );\n    }\n}",
  "sourcePath": "C:\\Users\\sruja\\Desktop\\Decentralised-Book-Rental-System-main\\contracts\\BookRental.sol",
  "compiler": {
    "name": "solc",
    "version": "0.8.20+commit.a1b79de6.Emscripten.clang"
  },
  "schemaVersion": "3.4.16",
  "updatedAt": "2025-04-24T17:21:32.296Z",
  "devdoc": {
    "kind": "dev",
    "methods": {
      "getAllBooks()": {
        "details": "Get all books",
        "returns": {
          "_0": "Array of book IDs, titles, daily prices, deposits, owners, and availability status"
        }
      },
      "getBookDetails(uint256)": {
        "details": "Get book details",
        "params": {
          "_bookId": "ID of the book"
        },
        "returns": {
          "_0": "Book details (title, daily price, deposit, owner, renter, rentedAt, availability)"
        }
      },
      "getUserRentals(address)": {
        "details": "Get user's rented books",
        "params": {
          "_user": "Address of the user"
        },
        "returns": {
          "_0": "Array of rented book IDs"
        }
      },
      "listBook(string,uint256,uint256)": {
        "details": "List a book for rental",
        "params": {
          "_dailyPrice": "Daily rental price in wei",
          "_deposit": "Deposit amount in wei",
          "_title": "Title of the book"
        }
      },
      "rentBook(uint256)": {
        "details": "Rent a book",
        "params": {
          "_bookId": "ID of the book to rent"
        }
      },
      "returnBook(uint256)": {
        "details": "Return a rented book",
        "params": {
          "_bookId": "ID of the book to return"
        }
      }
    },
    "version": 1
  },
  "userdoc": {
    "kind": "user",
    "methods": {},
    "version": 1
  }
}