{
  "contractName": "BookRental",
  "abi": [
    {
      "anonymous": false,
      "inputs": [
        {
          "indexed": true,
          "internalType": "uint256",
          "name": "bookId",
          "type": "uint256"
        },
        {
          "indexed": false,
          "internalType": "string",
          "name": "title",
          "type": "string"
        },
        {
          "indexed": false,
          "internalType": "uint256",
          "name": "dailyPrice",
          "type": "uint256"
        },
        {
          "indexed": false,
          "internalType": "uint256",
          "name": "deposit",
          "type": "uint256"
        },
        {
          "indexed": false,
          "internalType": "address",
          "name": "owner",
          "type": "address"
        },
        {
          "indexed": false,
          "internalType": "string",
          "name": "metadataUri",
          "type": "string"
        }
      ],
      "name": "BookListed",
      "type": "event"
    },
    {
      "anonymous": false,
      "inputs": [
        {
          "indexed": true,
          "internalType": "uint256",
          "name": "bookId",
          "type": "uint256"
        },
        {
          "indexed": false,
          "internalType": "address",
          "name": "renter",
          "type": "address"
        },
        {
          "indexed": false,
          "internalType": "uint256",
          "name": "rentedAt",
          "type": "uint256"
        },
        {
          "indexed": false,
          "internalType": "uint256",
          "name": "deposit",
          "type": "uint256"
        }
      ],
      "name": "BookRented",
      "type": "event"
    },
    {
      "anonymous": false,
      "inputs": [
        {
          "indexed": true,
          "internalType": "uint256",
          "name": "bookId",
          "type": "uint256"
        },
        {
          "indexed": false,
          "internalType": "address",
          "name": "renter",
          "type": "address"
        },
        {
          "indexed": false,
          "internalType": "uint256",
          "name": "returnedAt",
          "type": "uint256"
        },
        {
          "indexed": false,
          "internalType": "uint256",
          "name": "refundAmount",
          "type": "uint256"
        },
        {
          "indexed": false,
          "internalType": "uint256",
          "name": "lateFee",
          "type": "uint256"
        }
      ],
      "name": "BookReturned",
      "type": "event"
    },
    {
      "inputs": [
        {
          "internalType": "uint256",
          "name": "",
          "type": "uint256"
        }
      ],
      "name": "books",
      "outputs": [
        {
          "internalType": "string",
          "name": "title",
          "type": "string"
        },
        {
          "internalType": "uint256",
          "name": "dailyPrice",
          "type": "uint256"
        },
        {
          "internalType": "uint256",
          "name": "deposit",
          "type": "uint256"
        },
        {
          "internalType": "address",
          "name": "owner",
          "type": "address"
        },
        {
          "internalType": "address",
          "name": "renter",
          "type": "address"
        },
        {
          "internalType": "uint256",
          "name": "rentedAt",
          "type": "uint256"
        },
        {
          "internalType": "uint256",
          "name": "rentalPeriod",
          "type": "uint256"
        },
        {
          "internalType": "bool",
          "name": "isAvailable",
          "type": "bool"
        },
        {
          "internalType": "string",
          "name": "metadataUri",
          "type": "string"
        }
      ],
      "stateMutability": "view",
      "type": "function",
      "constant": true
    },
    {
      "inputs": [
        {
          "internalType": "string",
          "name": "_title",
          "type": "string"
        },
        {
          "internalType": "uint256",
          "name": "_dailyPrice",
          "type": "uint256"
        },
        {
          "internalType": "uint256",
          "name": "_deposit",
          "type": "uint256"
        },
        {
          "internalType": "string",
          "name": "_metadataUri",
          "type": "string"
        }
      ],
      "name": "listBook",
      "outputs": [],
      "stateMutability": "nonpayable",
      "type": "function"
    },
    {
      "inputs": [
        {
          "internalType": "uint256",
          "name": "_bookId",
          "type": "uint256"
        }
      ],
      "name": "rentBook",
      "outputs": [],
      "stateMutability": "payable",
      "type": "function",
      "payable": true
    },
    {
      "inputs": [
        {
          "internalType": "uint256",
          "name": "_bookId",
          "type": "uint256"
        }
      ],
      "name": "returnBook",
      "outputs": [],
      "stateMutability": "nonpayable",
      "type": "function"
    },
    {
      "inputs": [],
      "name": "getAllBooks",
      "outputs": [
        {
          "internalType": "uint256[]",
          "name": "",
          "type": "uint256[]"
        },
        {
          "internalType": "string[]",
          "name": "",
          "type": "string[]"
        },
        {
          "internalType": "uint256[]",
          "name": "",
          "type": "uint256[]"
        },
        {
          "internalType": "uint256[]",
          "name": "",
          "type": "uint256[]"
        },
        {
          "internalType": "address[]",
          "name": "",
          "type": "address[]"
        },
        {
          "internalType": "bool[]",
          "name": "",
          "type": "bool[]"
        },
        {
          "internalType": "string[]",
          "name": "",
          "type": "string[]"
        }
      ],
      "stateMutability": "view",
      "type": "function",
      "constant": true
    },
    {
      "inputs": [
        {
          "internalType": "address",
          "name": "_user",
          "type": "address"
        }
      ],
      "name": "getUserRentals",
      "outputs": [
        {
          "internalType": "uint256[]",
          "name": "",
          "type": "uint256[]"
        }
      ],
      "stateMutability": "view",
      "type": "function",
      "constant": true
    },
    {
      "inputs": [
        {
          "internalType": "uint256",
          "name": "_bookId",
          "type": "uint256"
        }
      ],
      "name": "getBookDetails",
      "outputs": [
        {
          "internalType": "string",
          "name": "",
          "type": "string"
        },
        {
          "internalType": "uint256",
          "name": "",
          "type": "uint256"
        },
        {
          "internalType": "uint256",
          "name": "",
          "type": "uint256"
        },
        {
          "internalType": "address",
          "name": "",
          "type": "address"
        },
        {
          "internalType": "address",
          "name": "",
          "type": "address"
        },
        {
          "internalType": "uint256",
          "name": "",
          "type": "uint256"
        },
        {
          "internalType": "bool",
          "name": "",
          "type": "bool"
        },
        {
          "internalType": "string",
          "name": "",
          "type": "string"
        }
      ],
      "stateMutability": "view",
      "type": "function",
      "constant": true
    }
  ],
  "bytecode": "0x608060405234801561000f575f80fd5b5060015f55611c0d806100215f395ff3fe60806040526004361061006e575f3560e01c80636cb924ec1161004c5780636cb924ec1461010257806374ff481814610123578063ab4f5bbf14610156578063ca5140c914610169575f80fd5b8063354528e8146100725780633b6702a1146100a257806368744046146100ce575b5f80fd5b34801561007d575f80fd5b50610086610188565b6040516100999796959493929190611669565b60405180910390f35b3480156100ad575f80fd5b506100c16100bc36600461172b565b6106cd565b6040516100999190611758565b3480156100d9575f80fd5b506100ed6100e836600461176a565b610736565b60405161009999989796959493929190611781565b34801561010d575f80fd5b5061012161011c366004611891565b61089f565b005b34801561012e575f80fd5b5061014261013d36600461176a565b610ac3565b604051610099989796959493929190611903565b61012161016436600461176a565b610c4d565b348015610174575f80fd5b5061012161018336600461176a565b610ffc565b6002546060908190819081908190819081905f906001600160801b031667ffffffffffffffff8111156101bd576101bd6117f4565b6040519080825280602002602001820160405280156101e6578160200160208202803683370190505b506002549091505f906001600160801b031667ffffffffffffffff811115610210576102106117f4565b60405190808252806020026020018201604052801561024357816020015b606081526020019060019003908161022e5790505b506002549091505f906001600160801b031667ffffffffffffffff81111561026d5761026d6117f4565b604051908082528060200260200182016040528015610296578160200160208202803683370190505b506002549091505f906001600160801b031667ffffffffffffffff8111156102c0576102c06117f4565b6040519080825280602002602001820160405280156102e9578160200160208202803683370190505b506002549091505f906001600160801b031667ffffffffffffffff811115610313576103136117f4565b60405190808252806020026020018201604052801561033c578160200160208202803683370190505b506002549091505f906001600160801b031667ffffffffffffffff811115610366576103666117f4565b60405190808252806020026020018201604052801561038f578160200160208202803683370190505b506002549091505f906001600160801b031667ffffffffffffffff8111156103b9576103b96117f4565b6040519080825280602002602001820160405280156103ec57816020015b60608152602001906001900390816103d75790505b5090505f5b6002546001600160801b03168110156106b6575f818152600160205260408082208151610120810190925280548290829061042b9061196d565b80601f01602080910402602001604051908101604052809291908181526020018280546104579061196d565b80156104a25780601f10610479576101008083540402835291602001916104a2565b820191905f5260205f20905b81548152906001019060200180831161048557829003601f168201915b5050509183525050600182015460208201526002820154604082015260038201546001600160a01b0390811660608301526004830154166080820152600582015460a0820152600682015460c0820152600782015460ff16151560e0820152600882018054610100909201916105179061196d565b80601f01602080910402602001604051908101604052809291908181526020018280546105439061196d565b801561058e5780601f106105655761010080835404028352916020019161058e565b820191905f5260205f20905b81548152906001019060200180831161057157829003601f168201915b5050505050815250509050818983815181106105ac576105ac6119a5565b602002602001018181525050805f01518883815181106105ce576105ce6119a5565b602002602001018190525080602001518783815181106105f0576105f06119a5565b6020026020010181815250508060400151868381518110610613576106136119a5565b6020026020010181815250508060600151858381518110610636576106366119a5565b60200260200101906001600160a01b031690816001600160a01b0316815250508060e0015184838151811061066d5761066d6119a5565b602002602001019015159081151581525050806101000151838381518110610697576106976119a5565b60200260200101819052505080806106ae906119cd565b9150506103f1565b50959d949c50929a50909850965094509092509050565b6001600160a01b0381165f9081526003602090815260409182902080548351818402810184019094528084526060939283018282801561072a57602002820191905f5260205f20905b815481526020019060010190808311610716575b50505050509050919050565b60016020525f90815260409020805481906107509061196d565b80601f016020809104026020016040519081016040528092919081815260200182805461077c9061196d565b80156107c75780601f1061079e576101008083540402835291602001916107c7565b820191905f5260205f20905b8154815290600101906020018083116107aa57829003601f168201915b50505060018401546002850154600386015460048701546005880154600689015460078a015460088b0180549a9b979a9699506001600160a01b03958616985093909416959194909360ff16929061081e9061196d565b80601f016020809104026020016040519081016040528092919081815260200182805461084a9061196d565b80156108955780601f1061086c57610100808354040283529160200191610895565b820191905f5260205f20905b81548152906001019060200180831161087857829003601f168201915b5050505050905089565b5f83116108fe5760405162461bcd60e51b815260206004820152602260248201527f4461696c79207072696365206d7573742062652067726561746572207468616e604482015261020360f41b60648201526084015b60405180910390fd5b5f821161094d5760405162461bcd60e51b815260206004820152601e60248201527f4465706f736974206d7573742062652067726561746572207468616e2030000060448201526064016108f5565b600280546001600160801b03169081905f610967836119e5565b82546001600160801b0391821661010093840a9081029202191617909155604080516101208101825288815260208082018990528183018890523360608301525f6080830181905260a0830181905260c08301819052600160e08401819052948301889052868152939052912081519192509081906109e69082611a58565b50602082015160018201556040820151600282015560608201516003820180546001600160a01b039283166001600160a01b031991821617909155608084015160048401805491909316911617905560a0820151600582015560c0820151600682015560e082015160078201805491151560ff199092169190911790556101008201516008820190610a789082611a58565b50905050807f22d2b3ff392e92c34c4ab596bdb0109156ecd36d6d4698796904632a6ad70a4f8686863387604051610ab4959493929190611b14565b60405180910390a25050505050565b5f81815260016020819052604082209081015460028201546003830154600484015460058501546007860154865460609897889788978897889788978e97959687966001600160a01b03948516949093169260ff169060088801908890610b299061196d565b80601f0160208091040260200160405190810160405280929190818152602001828054610b559061196d565b8015610ba05780601f10610b7757610100808354040283529160200191610ba0565b820191905f5260205f20905b815481529060010190602001808311610b8357829003601f168201915b50505050509750808054610bb39061196d565b80601f0160208091040260200160405190810160405280929190818152602001828054610bdf9061196d565b8015610c2a5780601f10610c0157610100808354040283529160200191610c2a565b820191905f5260205f20905b815481529060010190602001808311610c0d57829003601f168201915b505050505090509850985098509850985098509850985050919395975091939597565b610c55611457565b5f81815260016020526040902060038101546001600160a01b0316610cb25760405162461bcd60e51b8152602060048201526013602482015272109bdbdac8191bd95cc81b9bdd08195e1a5cdd606a1b60448201526064016108f5565b600781015460ff16610d065760405162461bcd60e51b815260206004820152601e60248201527f426f6f6b206973206e6f7420617661696c61626c6520666f722072656e74000060448201526064016108f5565b60038101546001600160a01b03163303610d625760405162461bcd60e51b815260206004820181905260248201527f4f776e65722063616e6e6f742072656e74207468656972206f776e20626f6f6b60448201526064016108f5565b80600101548160020154610d769190611b61565b341015610dbc5760405162461bcd60e51b8152602060048201526014602482015273125b9cdd59999a58da595b9d081c185e5b595b9d60621b60448201526064016108f5565b6004810180546001600160a01b03191633179055426005820181905560078201805460ff19169055610df19062015180611b61565b6006820155335f908152600360208181526040808420805460018082018355918652928520909201869055918401549084015491516001600160a01b0390911691908381818185875af1925050503d805f8114610e69576040519150601f19603f3d011682016040523d82523d5f602084013e610e6e565b606091505b5050905080610ebf5760405162461bcd60e51b815260206004820152601f60248201527f4661696c656420746f2073656e64207061796d656e7420746f206f776e65720060448201526064016108f5565b81600101548260020154610ed39190611b61565b341115610fa6575f336001600160a01b031683600101548460020154610ef99190611b61565b610f039034611b7a565b6040515f81818185875af1925050503d805f8114610f3c576040519150601f19603f3d011682016040523d82523d5f602084013e610f41565b606091505b5050905080610fa45760405162461bcd60e51b815260206004820152602960248201527f4661696c656420746f20726566756e6420657863657373207061796d656e74206044820152683a37903932b73a32b960b91b60648201526084016108f5565b505b6002820154604080513381524260208201529081019190915283907f99e38486f895d4b653cd4a1dce4fc0db2a1e939d24bdb06bd55264bbd31f9a2a9060600160405180910390a25050610ff960015f55565b50565b611004611457565b5f81815260016020526040902060038101546001600160a01b03166110615760405162461bcd60e51b8152602060048201526013602482015272109bdbdac8191bd95cc81b9bdd08195e1a5cdd606a1b60448201526064016108f5565b600781015460ff16156110ab5760405162461bcd60e51b8152602060048201526012602482015271109bdbdac81a5cc81b9bdd081c995b9d195960721b60448201526064016108f5565b60048101546001600160a01b031633146111135760405162461bcd60e51b815260206004820152602360248201527f4f6e6c79207468652072656e7465722063616e2072657475726e2074686520626044820152626f6f6b60e81b60648201526084016108f5565b5f620151808260050154426111289190611b7a565b611135906201517f611b61565b61113f9190611b8d565b9050805f0361114c575060015b5f826006015442111561119b575f6201518084600601544261116e9190611b7a565b61117b906201517f611b61565b6111859190611b8d565b90508084600101546111979190611bac565b9150505b5f816111a8600185611b7a565b85600101546111b79190611bac565b6111c19190611b61565b90505f8185600201546111d49190611b7a565b905084600201548210156113275760038501546040515f916001600160a01b03169084908381818185875af1925050503d805f811461122e576040519150601f19603f3d011682016040523d82523d5f602084013e611233565b606091505b50509050806112845760405162461bcd60e51b815260206004820152601f60248201527f4661696c656420746f2073656e64207061796d656e7420746f206f776e65720060448201526064016108f5565b8115611321576040515f90339084908381818185875af1925050503d805f81146112c9576040519150601f19603f3d011682016040523d82523d5f602084013e6112ce565b606091505b505090508061131f5760405162461bcd60e51b815260206004820152601f60248201527f4661696c656420746f2073656e6420726566756e6420746f2072656e7465720060448201526064016108f5565b505b506113cf565b600385015460028601546040515f926001600160a01b031691908381818185875af1925050503d805f8114611377576040519150601f19603f3d011682016040523d82523d5f602084013e61137c565b606091505b50509050806113cd5760405162461bcd60e51b815260206004820152601f60248201527f4661696c656420746f2073656e64206465706f73697420746f206f776e65720060448201526064016108f5565b505b60078501805460ff191660011790556113e833876114ae565b604080513381524260208201529081018290526060810184905286907fd7e83ab51100c5a59ba62d513acdc01ced6b2105e4a08ba932d069f696248d9f9060800160405180910390a25050506004820180546001600160a01b0319169055505f600590910155610ff960015f55565b60025f54036114a85760405162461bcd60e51b815260206004820152601f60248201527f5265656e7472616e637947756172643a207265656e7472616e742063616c6c0060448201526064016108f5565b60025f55565b6001600160a01b0382165f908152600360205260408120805490915b8181101561156657838382815481106114e5576114e56119a5565b905f5260205f2001540361155e57826114ff600184611b7a565b8154811061150f5761150f6119a5565b905f5260205f20015483828154811061152a5761152a6119a5565b905f5260205f2001819055508280548061154657611546611bc3565b600190038181905f5260205f20015f90559055611566565b6001016114ca565b5050505050565b5f8151808452602080850194508084015f5b8381101561159b5781518752958201959082019060010161157f565b509495945050505050565b5f81518084525f5b818110156115ca576020818501810151868301820152016115ae565b505f602082860101526020601f19601f83011685010191505092915050565b5f815180845260208085019450848260051b86018286015f5b8581101561162c57838303895261161a8383516115a6565b98850198925090840190600101611602565b5090979650505050505050565b5f8151808452602080850194508084015f5b8381101561159b57815115158752958201959082019060010161164b565b60e081525f61167b60e083018a61156d565b60208382038185015261168e828b6115e9565b915083820360408501526116a2828a61156d565b915083820360608501526116b6828961156d565b848103608086015287518082528289019350908201905f5b818110156116f35784516001600160a01b0316835293830193918301916001016116ce565b505084810360a08601526117078188611639565b9250505082810360c084015261171d81856115e9565b9a9950505050505050505050565b5f6020828403121561173b575f80fd5b81356001600160a01b0381168114611751575f80fd5b9392505050565b602081525f611751602083018461156d565b5f6020828403121561177a575f80fd5b5035919050565b5f6101208083526117948184018d6115a6565b602084018c9052604084018b90526001600160a01b038a811660608601528916608085015260a0840188905260c0840187905285151560e085015283810361010085015290506117e481856115a6565b9c9b505050505050505050505050565b634e487b7160e01b5f52604160045260245ffd5b5f82601f830112611817575f80fd5b813567ffffffffffffffff80821115611832576118326117f4565b604051601f8301601f19908116603f0116810190828211818310171561185a5761185a6117f4565b81604052838152866020858801011115611872575f80fd5b836020870160208301375f602085830101528094505050505092915050565b5f805f80608085870312156118a4575f80fd5b843567ffffffffffffffff808211156118bb575f80fd5b6118c788838901611808565b9550602087013594506040870135935060608701359150808211156118ea575f80fd5b506118f787828801611808565b91505092959194509250565b5f6101008083526119168184018c6115a6565b602084018b9052604084018a90526001600160a01b0389811660608601528816608085015260a0840187905285151560c085015283810360e0850152905061195e81856115a6565b9b9a5050505050505050505050565b600181811c9082168061198157607f821691505b60208210810361199f57634e487b7160e01b5f52602260045260245ffd5b50919050565b634e487b7160e01b5f52603260045260245ffd5b634e487b7160e01b5f52601160045260245ffd5b5f600182016119de576119de6119b9565b5060010190565b5f6001600160801b03808316818103611a0057611a006119b9565b6001019392505050565b601f821115611a53575f81815260208120601f850160051c81016020861015611a305750805b601f850160051c820191505b81811015611a4f57828155600101611a3c565b5050505b505050565b815167ffffffffffffffff811115611a7257611a726117f4565b611a8681611a80845461196d565b84611a0a565b602080601f831160018114611ab9575f8415611aa25750858301515b5f19600386901b1c1916600185901b178555611a4f565b5f85815260208120601f198616915b82811015611ae757888601518255948401946001909101908401611ac8565b5085821015611b0457878501515f19600388901b60f8161c191681555b5050505050600190811b01905550565b60a081525f611b2660a08301886115a6565b60208301879052604083018690526001600160a01b03851660608401528281036080840152611b5581856115a6565b98975050505050505050565b80820180821115611b7457611b746119b9565b92915050565b81810381811115611b7457611b746119b9565b5f82611ba757634e487b7160e01b5f52601260045260245ffd5b500490565b8082028115828204841417611b7457611b746119b9565b634e487b7160e01b5f52603160045260245ffdfea26469706673582212206ce5dd2b55b0ffe00306c4621fd31bd80d259ead7f3cb2d8722f8563cf9418b064736f6c63430008140033",
  "immutableReferences": {},
  "source": "// SPDX-License-Identifier: MIT\npragma solidity ^0.8.20;\n\nimport \"@openzeppelin/contracts/security/ReentrancyGuard.sol\";\n\ncontract BookRental is ReentrancyGuard {\n    // Struct to store book information\n    struct Book {\n        string title;\n        uint256 dailyPrice; // in wei\n        uint256 deposit; // in wei\n        address owner;\n        address renter;\n        uint256 rentedAt; // timestamp when book was rented\n        uint256 rentalPeriod; // rental period in seconds\n        bool isAvailable;\n        string metadataUri; // New field for metadata URI\n    }\n    \n    // Mapping from book ID to Book struct\n    mapping(uint256 => Book) public books;\n    \n    // Counter for book IDs\n    uint128 private _bookIdCounter; // Gas optimization: use smaller type since we don't expect more than 2^128 books\n    \n    // Mapping to track user's rented books\n    mapping(address => uint256[]) private userRentals;\n    \n    // Events\n    event BookListed(uint256 indexed bookId, string title, uint256 dailyPrice, uint256 deposit, address owner, string metadataUri);\n    event BookRented(uint256 indexed bookId, address renter, uint256 rentedAt, uint256 deposit);\n    event BookReturned(uint256 indexed bookId, address renter, uint256 returnedAt, uint256 refundAmount, uint256 lateFee);\n\n    /**\n     * @dev List a book for rental\n     * @param _title Title of the book\n     * @param _dailyPrice Daily rental price in wei\n     * @param _deposit Deposit amount in wei\n     * @param _metadataUri URI containing metadata about the book\n     */\n    function listBook(string memory _title, uint256 _dailyPrice, uint256 _deposit, string memory _metadataUri) external {\n        require(_dailyPrice > 0, \"Daily price must be greater than 0\");\n        require(_deposit > 0, \"Deposit must be greater than 0\");\n        \n        uint256 bookId = _bookIdCounter;\n        _bookIdCounter++;\n        \n        books[bookId] = Book({\n            title: _title,\n            dailyPrice: _dailyPrice,\n            deposit: _deposit,\n            owner: msg.sender,\n            renter: address(0),\n            rentedAt: 0,\n            rentalPeriod: 0,\n            isAvailable: true,\n            metadataUri: _metadataUri\n        });\n        \n        emit BookListed(bookId, _title, _dailyPrice, _deposit, msg.sender, _metadataUri);\n    }\n\n    /**\n     * @dev Rent a book\n     * @param _bookId ID of the book to rent\n     */\n    function rentBook(uint256 _bookId) external payable nonReentrant {\n        Book storage book = books[_bookId];\n        \n        require(book.owner != address(0), \"Book does not exist\");\n        require(book.isAvailable, \"Book is not available for rent\");\n        require(msg.sender != book.owner, \"Owner cannot rent their own book\");\n        require(msg.value >= book.deposit + book.dailyPrice, \"Insufficient payment\");\n        \n        // Update book status\n        book.renter = msg.sender;\n        book.rentedAt = block.timestamp;\n        book.isAvailable = false;\n        book.rentalPeriod = block.timestamp + 1 days; // Default rental period set to 1 day\n        \n        // Add to user's rentals\n        userRentals[msg.sender].push(_bookId);\n        \n        // Send first day's payment to the owner\n        (bool success, ) = payable(book.owner).call{value: book.dailyPrice}(\"\");\n        require(success, \"Failed to send payment to owner\");\n\n        if (msg.value > book.deposit + book.dailyPrice) { // Gas optimization: check if excess payment exists using calculation, not by storing in a variable\n            (bool renterSuccess, ) = payable(msg.sender).call{value: msg.value - (book.deposit + book.dailyPrice)}(\"\");\n            require(renterSuccess, \"Failed to refund excess payment to renter\");\n        }\n\n        emit BookRented(_bookId, msg.sender, block.timestamp, book.deposit);\n    }\n\n    /**\n     * @dev Return a rented book\n     * @param _bookId ID of the book to return\n     */\n    function returnBook(uint256 _bookId) external nonReentrant {\n        Book storage book = books[_bookId];\n        \n        require(book.owner != address(0), \"Book does not exist\");\n        require(!book.isAvailable, \"Book is not rented\");\n        require(msg.sender == book.renter, \"Only the renter can return the book\");\n\n        uint256 rentalDays = (block.timestamp - book.rentedAt + 86399) / 86400; // 86400 seconds = 1 day\n        if (rentalDays == 0) {\n            rentalDays = 1; // Minimum 1 day rental\n        }\n        \n        // Calculate the late fee (if any)\n        uint256 lateFee = 0;\n        if (block.timestamp > book.rentalPeriod) {\n            uint256 lateDays = (block.timestamp - book.rentalPeriod + 86399) / 86400; // Calculate how many days late\n            lateFee = book.dailyPrice * lateDays;\n        }\n        \n        // Calculate total rental cost (first day already paid)\n        uint256 totalRentalCost = book.dailyPrice * (rentalDays - 1) + lateFee;\n        \n        uint256 refundAmount = book.deposit - totalRentalCost;\n\n        if (totalRentalCost < book.deposit) {\n            // Send rental fee to the owner\n            (bool ownerSuccess, ) = payable(book.owner).call{value: totalRentalCost}(\"\");\n            require(ownerSuccess, \"Failed to send payment to owner\");\n\n            // Refund the renter if applicable\n            if (refundAmount > 0) {\n                (bool renterSuccess, ) = payable(msg.sender).call{value: refundAmount}(\"\");\n                require(renterSuccess, \"Failed to send refund to renter\");\n            }\n        } else {\n            // Send entire deposit to the owner in case of no refund\n            (bool ownerSuccess, ) = payable(book.owner).call{value: book.deposit}(\"\");\n            require(ownerSuccess, \"Failed to send deposit to owner\");\n        }\n\n        // Reset book status\n        book.isAvailable = true;\n        \n        // Remove from user's rentals\n        removeFromUserRentals(msg.sender, _bookId);\n        \n        emit BookReturned(_bookId, msg.sender, block.timestamp, refundAmount, lateFee);\n        \n        // Reset rental data\n        book.renter = address(0);\n        book.rentedAt = 0;\n    }\n\n    /**\n     * @dev Helper function to remove a book from user's rentals array\n     * @param _user Address of the user\n     * @param _bookId ID of the book to remove\n     */\n    function removeFromUserRentals(address _user, uint256 _bookId) private {\n    uint256[] storage rentals = userRentals[_user];\n    uint256 length = rentals.length;\n    \n    // Fix: Loop indexing was incorrect\n    for (uint256 i = 0; i < length;) {\n        if (rentals[i] == _bookId) {\n            // Replace with the last element\n            rentals[i] = rentals[length - 1];\n            // Remove the last element\n            rentals.pop();\n            break;\n        }\n        unchecked {\n            ++i;\n        }\n    }\n}\n\n    /**\n     * @dev Get all books\n     * @return Array of book IDs, titles, daily prices, deposits, owners, availability status, and metadata URIs\n     */\n    function getAllBooks() external view returns (\n        uint256[] memory,\n        string[] memory,\n        uint256[] memory,\n        uint256[] memory,\n        address[] memory,\n        bool[] memory,\n        string[] memory // Metadata URI array\n    ) {\n        uint256[] memory ids = new uint256[](_bookIdCounter);\n        string[] memory titles = new string[](_bookIdCounter);\n        uint256[] memory dailyPrices = new uint256[](_bookIdCounter);\n        uint256[] memory deposits = new uint256[](_bookIdCounter);\n        address[] memory owners = new address[](_bookIdCounter);\n        bool[] memory availability = new bool[](_bookIdCounter);\n        string[] memory metadataUris = new string[](_bookIdCounter);\n\n        for (uint256 i = 0; i < _bookIdCounter; i++) {\n            Book memory book = books[i]; // Gas optimization: load book once in memory instead of storage\n            ids[i] = i;\n            titles[i] = book.title;\n            dailyPrices[i] = book.dailyPrice;\n            deposits[i] = book.deposit;\n            owners[i] = book.owner;\n            availability[i] = book.isAvailable;\n            metadataUris[i] = book.metadataUri; // Adding metadata URI\n        }\n\n        return (ids, titles, dailyPrices, deposits, owners, availability, metadataUris);\n    }\n\n    /**\n     * @dev Get user's rented books\n     * @param _user Address of the user\n     * @return Array of rented book IDs\n     */\n    function getUserRentals(address _user) external view returns (uint256[] memory) {\n        return userRentals[_user];\n    }\n\n    /**\n     * @dev Get book details\n     * @param _bookId ID of the book\n     * @return Book details (title, daily price, deposit, owner, renter, rentedAt, availability, metadataUri)\n     */\n    function getBookDetails(uint256 _bookId) external view returns (\n        string memory,\n        uint256,\n        uint256,\n        address,\n        address,\n        uint256,\n        bool,\n        string memory // metadataUri added\n    ) {\n        Book storage book = books[_bookId];\n        return (\n            book.title,\n            book.dailyPrice,\n            book.deposit,\n            book.owner,\n            book.renter,\n            book.rentedAt,\n            book.isAvailable,\n            book.metadataUri\n        );\n    }\n}\n",
  "sourcePath": "C:\\Users\\sruja\\Desktop\\Decentralised-Book-Rental-System-main\\contracts\\BookRental.sol",
  "compiler": {
    "name": "solc",
    "version": "0.8.20+commit.a1b79de6.Emscripten.clang"
  },
  "schemaVersion": "3.4.16",
  "updatedAt": "2025-04-25T16:55:19.842Z",
  "networkType": "ethereum",
  "devdoc": {
    "kind": "dev",
    "methods": {
      "getAllBooks()": {
        "details": "Get all books",
        "returns": {
          "_0": "Array of book IDs, titles, daily prices, deposits, owners, availability status, and metadata URIs"
        }
      },
      "getBookDetails(uint256)": {
        "details": "Get book details",
        "params": {
          "_bookId": "ID of the book"
        },
        "returns": {
          "_0": "Book details (title, daily price, deposit, owner, renter, rentedAt, availability, metadataUri)"
        }
      },
      "getUserRentals(address)": {
        "details": "Get user's rented books",
        "params": {
          "_user": "Address of the user"
        },
        "returns": {
          "_0": "Array of rented book IDs"
        }
      },
      "listBook(string,uint256,uint256,string)": {
        "details": "List a book for rental",
        "params": {
          "_dailyPrice": "Daily rental price in wei",
          "_deposit": "Deposit amount in wei",
          "_metadataUri": "URI containing metadata about the book",
          "_title": "Title of the book"
        }
      },
      "rentBook(uint256)": {
        "details": "Rent a book",
        "params": {
          "_bookId": "ID of the book to rent"
        }
      },
      "returnBook(uint256)": {
        "details": "Return a rented book",
        "params": {
          "_bookId": "ID of the book to return"
        }
      }
    },
    "version": 1
  },
  "userdoc": {
    "kind": "user",
    "methods": {},
    "version": 1
  }
}